{
  "address": "0xA91C4C647733f9a8D4e195f1353d94B7Edd63A79",
  "abi": [
    {
      "inputs": [
        {
          "internalType": "address",
          "name": "_endpoint",
          "type": "address"
        },
        {
          "internalType": "address",
          "name": "_owner",
          "type": "address"
        },
        {
          "internalType": "address",
          "name": "_depositVerifier",
          "type": "address"
        },
        {
          "internalType": "address",
          "name": "_transferVerifier",
          "type": "address"
        },
        {
          "internalType": "address",
          "name": "_withdrawVerifier",
          "type": "address"
        },
        {
          "internalType": "address",
          "name": "_warpVerifier",
          "type": "address"
        }
      ],
      "stateMutability": "nonpayable",
      "type": "constructor"
    },
    {
      "inputs": [],
      "name": "AccessControlBadConfirmation",
      "type": "error"
    },
    {
      "inputs": [
        {
          "internalType": "address",
          "name": "account",
          "type": "address"
        },
        {
          "internalType": "bytes32",
          "name": "neededRole",
          "type": "bytes32"
        }
      ],
      "name": "AccessControlUnauthorizedAccount",
      "type": "error"
    },
    {
      "inputs": [],
      "name": "InvalidDelegate",
      "type": "error"
    },
    {
      "inputs": [],
      "name": "InvalidEndpointCall",
      "type": "error"
    },
    {
      "inputs": [],
      "name": "LzTokenUnavailable",
      "type": "error"
    },
    {
      "inputs": [
        {
          "internalType": "uint32",
          "name": "eid",
          "type": "uint32"
        }
      ],
      "name": "NoPeer",
      "type": "error"
    },
    {
      "inputs": [
        {
          "internalType": "uint256",
          "name": "msgValue",
          "type": "uint256"
        }
      ],
      "name": "NotEnoughNative",
      "type": "error"
    },
    {
      "inputs": [
        {
          "internalType": "address",
          "name": "addr",
          "type": "address"
        }
      ],
      "name": "OnlyEndpoint",
      "type": "error"
    },
    {
      "inputs": [
        {
          "internalType": "uint32",
          "name": "eid",
          "type": "uint32"
        },
        {
          "internalType": "bytes32",
          "name": "sender",
          "type": "bytes32"
        }
      ],
      "name": "OnlyPeer",
      "type": "error"
    },
    {
      "inputs": [
        {
          "internalType": "address",
          "name": "owner",
          "type": "address"
        }
      ],
      "name": "OwnableInvalidOwner",
      "type": "error"
    },
    {
      "inputs": [
        {
          "internalType": "address",
          "name": "account",
          "type": "address"
        }
      ],
      "name": "OwnableUnauthorizedAccount",
      "type": "error"
    },
    {
      "inputs": [
        {
          "internalType": "address",
          "name": "token",
          "type": "address"
        }
      ],
      "name": "SafeERC20FailedOperation",
      "type": "error"
    },
    {
      "anonymous": false,
      "inputs": [
        {
          "indexed": true,
          "internalType": "uint256",
          "name": "leafIndex",
          "type": "uint256"
        },
        {
          "indexed": true,
          "internalType": "uint256",
          "name": "leafValue",
          "type": "uint256"
        }
      ],
      "name": "LeafInserted",
      "type": "event"
    },
    {
      "anonymous": false,
      "inputs": [
        {
          "indexed": false,
          "internalType": "bytes",
          "name": "encryptedNote",
          "type": "bytes"
        }
      ],
      "name": "NotePayload",
      "type": "event"
    },
    {
      "anonymous": false,
      "inputs": [
        {
          "indexed": true,
          "internalType": "uint256",
          "name": "nullifier",
          "type": "uint256"
        }
      ],
      "name": "NullifierUsed",
      "type": "event"
    },
    {
      "anonymous": false,
      "inputs": [
        {
          "indexed": true,
          "internalType": "address",
          "name": "previousOwner",
          "type": "address"
        },
        {
          "indexed": true,
          "internalType": "address",
          "name": "newOwner",
          "type": "address"
        }
      ],
      "name": "OwnershipTransferred",
      "type": "event"
    },
    {
      "anonymous": false,
      "inputs": [
        {
          "indexed": false,
          "internalType": "uint32",
          "name": "eid",
          "type": "uint32"
        },
        {
          "indexed": false,
          "internalType": "bytes32",
          "name": "peer",
          "type": "bytes32"
        }
      ],
      "name": "PeerSet",
      "type": "event"
    },
    {
      "anonymous": false,
      "inputs": [
        {
          "indexed": true,
          "internalType": "bytes32",
          "name": "role",
          "type": "bytes32"
        },
        {
          "indexed": true,
          "internalType": "bytes32",
          "name": "previousAdminRole",
          "type": "bytes32"
        },
        {
          "indexed": true,
          "internalType": "bytes32",
          "name": "newAdminRole",
          "type": "bytes32"
        }
      ],
      "name": "RoleAdminChanged",
      "type": "event"
    },
    {
      "anonymous": false,
      "inputs": [
        {
          "indexed": true,
          "internalType": "bytes32",
          "name": "role",
          "type": "bytes32"
        },
        {
          "indexed": true,
          "internalType": "address",
          "name": "account",
          "type": "address"
        },
        {
          "indexed": true,
          "internalType": "address",
          "name": "sender",
          "type": "address"
        }
      ],
      "name": "RoleGranted",
      "type": "event"
    },
    {
      "anonymous": false,
      "inputs": [
        {
          "indexed": true,
          "internalType": "bytes32",
          "name": "role",
          "type": "bytes32"
        },
        {
          "indexed": true,
          "internalType": "address",
          "name": "account",
          "type": "address"
        },
        {
          "indexed": true,
          "internalType": "address",
          "name": "sender",
          "type": "address"
        }
      ],
      "name": "RoleRevoked",
      "type": "event"
    },
    {
      "stateMutability": "payable",
      "type": "fallback"
    },
    {
      "inputs": [],
      "name": "DEFAULT_ADMIN_ROLE",
      "outputs": [
        {
          "internalType": "bytes32",
          "name": "",
          "type": "bytes32"
        }
      ],
      "stateMutability": "view",
      "type": "function"
    },
    {
      "inputs": [],
      "name": "DEPOSIT_ROLE",
      "outputs": [
        {
          "internalType": "bytes32",
          "name": "",
          "type": "bytes32"
        }
      ],
      "stateMutability": "view",
      "type": "function"
    },
    {
      "inputs": [],
      "name": "INITIAL_ROOT",
      "outputs": [
        {
          "internalType": "uint256",
          "name": "",
          "type": "uint256"
        }
      ],
      "stateMutability": "view",
      "type": "function"
    },
    {
      "inputs": [],
      "name": "MAX_LEAF_INDEX",
      "outputs": [
        {
          "internalType": "uint256",
          "name": "",
          "type": "uint256"
        }
      ],
      "stateMutability": "view",
      "type": "function"
    },
    {
      "inputs": [],
      "name": "MAX_VALUE",
      "outputs": [
        {
          "internalType": "uint256",
          "name": "",
          "type": "uint256"
        }
      ],
      "stateMutability": "view",
      "type": "function"
    },
    {
      "inputs": [],
      "name": "ROOT_HISTORY_SIZE",
      "outputs": [
        {
          "internalType": "uint32",
          "name": "",
          "type": "uint32"
        }
      ],
      "stateMutability": "view",
      "type": "function"
    },
    {
      "inputs": [
        {
          "internalType": "address",
          "name": "_oft",
          "type": "address"
        },
        {
          "internalType": "bool",
          "name": "_enabled",
          "type": "bool"
        }
      ],
      "name": "addSupportedOFT",
      "outputs": [],
      "stateMutability": "nonpayable",
      "type": "function"
    },
    {
      "inputs": [
        {
          "components": [
            {
              "internalType": "uint32",
              "name": "srcEid",
              "type": "uint32"
            },
            {
              "internalType": "bytes32",
              "name": "sender",
              "type": "bytes32"
            },
            {
              "internalType": "uint64",
              "name": "nonce",
              "type": "uint64"
            }
          ],
          "internalType": "struct Origin",
          "name": "origin",
          "type": "tuple"
        }
      ],
      "name": "allowInitializePath",
      "outputs": [
        {
          "internalType": "bool",
          "name": "",
          "type": "bool"
        }
      ],
      "stateMutability": "view",
      "type": "function"
    },
    {
      "inputs": [
        {
          "internalType": "address",
          "name": "",
          "type": "address"
        }
      ],
      "name": "availableOFTs",
      "outputs": [
        {
          "internalType": "bool",
          "name": "",
          "type": "bool"
        }
      ],
      "stateMutability": "view",
      "type": "function"
    },
    {
      "inputs": [],
      "name": "currentRootIndex",
      "outputs": [
        {
          "internalType": "uint32",
          "name": "",
          "type": "uint32"
        }
      ],
      "stateMutability": "view",
      "type": "function"
    },
    {
      "inputs": [
        {
          "internalType": "address",
          "name": "_erc20",
          "type": "address"
        },
        {
          "internalType": "uint64",
          "name": "_amount",
          "type": "uint64"
        },
        {
          "internalType": "bytes",
          "name": "_proof",
          "type": "bytes"
        },
        {
          "internalType": "bytes32[]",
          "name": "_publicInputs",
          "type": "bytes32[]"
        },
        {
          "internalType": "bytes[]",
          "name": "_payload",
          "type": "bytes[]"
        }
      ],
      "name": "deposit",
      "outputs": [],
      "stateMutability": "nonpayable",
      "type": "function"
    },
    {
      "inputs": [],
      "name": "depositVerifier",
      "outputs": [
        {
          "internalType": "contract DepositVerifier",
          "name": "",
          "type": "address"
        }
      ],
      "stateMutability": "view",
      "type": "function"
    },
    {
      "inputs": [],
      "name": "endpoint",
      "outputs": [
        {
          "internalType": "contract ILayerZeroEndpointV2",
          "name": "",
          "type": "address"
        }
      ],
      "stateMutability": "view",
      "type": "function"
    },
    {
      "inputs": [
        {
          "internalType": "uint256",
          "name": "",
          "type": "uint256"
        }
      ],
      "name": "filledSubtrees",
      "outputs": [
        {
          "internalType": "uint256",
          "name": "",
          "type": "uint256"
        }
      ],
      "stateMutability": "view",
      "type": "function"
    },
    {
      "inputs": [
        {
          "internalType": "bytes32",
          "name": "role",
          "type": "bytes32"
        }
      ],
      "name": "getRoleAdmin",
      "outputs": [
        {
          "internalType": "bytes32",
          "name": "",
          "type": "bytes32"
        }
      ],
      "stateMutability": "view",
      "type": "function"
    },
    {
      "inputs": [
        {
          "internalType": "bytes32",
          "name": "role",
          "type": "bytes32"
        },
        {
          "internalType": "address",
          "name": "account",
          "type": "address"
        }
      ],
      "name": "grantRole",
      "outputs": [],
      "stateMutability": "nonpayable",
      "type": "function"
    },
    {
      "inputs": [
        {
          "internalType": "bytes32",
          "name": "role",
          "type": "bytes32"
        },
        {
          "internalType": "address",
          "name": "account",
          "type": "address"
        }
      ],
      "name": "hasRole",
      "outputs": [
        {
          "internalType": "bool",
          "name": "",
          "type": "bool"
        }
      ],
      "stateMutability": "view",
      "type": "function"
    },
    {
      "inputs": [
        {
          "internalType": "uint256",
          "name": "_left",
          "type": "uint256"
        },
        {
          "internalType": "uint256",
          "name": "_right",
          "type": "uint256"
        }
      ],
      "name": "hashLeftRight",
      "outputs": [
        {
          "internalType": "uint256",
          "name": "",
          "type": "uint256"
        }
      ],
      "stateMutability": "view",
      "type": "function"
    },
    {
      "inputs": [],
      "name": "height",
      "outputs": [
        {
          "internalType": "uint256",
          "name": "",
          "type": "uint256"
        }
      ],
      "stateMutability": "view",
      "type": "function"
    },
    {
      "inputs": [
        {
          "components": [
            {
              "internalType": "uint32",
              "name": "srcEid",
              "type": "uint32"
            },
            {
              "internalType": "bytes32",
              "name": "sender",
              "type": "bytes32"
            },
            {
              "internalType": "uint64",
              "name": "nonce",
              "type": "uint64"
            }
          ],
          "internalType": "struct Origin",
          "name": "",
          "type": "tuple"
        },
        {
          "internalType": "bytes",
          "name": "",
          "type": "bytes"
        },
        {
          "internalType": "address",
          "name": "_sender",
          "type": "address"
        }
      ],
      "name": "isComposeMsgSender",
      "outputs": [
        {
          "internalType": "bool",
          "name": "",
          "type": "bool"
        }
      ],
      "stateMutability": "view",
      "type": "function"
    },
    {
      "inputs": [
        {
          "internalType": "uint256",
          "name": "_root",
          "type": "uint256"
        }
      ],
      "name": "isKnownRoot",
      "outputs": [
        {
          "internalType": "bool",
          "name": "",
          "type": "bool"
        }
      ],
      "stateMutability": "view",
      "type": "function"
    },
    {
      "inputs": [
        {
          "components": [
            {
              "internalType": "uint32",
              "name": "srcEid",
              "type": "uint32"
            },
            {
              "internalType": "bytes32",
              "name": "sender",
              "type": "bytes32"
            },
            {
              "internalType": "uint64",
              "name": "nonce",
              "type": "uint64"
            }
          ],
          "internalType": "struct Origin",
          "name": "_origin",
          "type": "tuple"
        },
        {
          "internalType": "bytes32",
          "name": "_guid",
          "type": "bytes32"
        },
        {
          "internalType": "bytes",
          "name": "_message",
          "type": "bytes"
        },
        {
          "internalType": "address",
          "name": "_executor",
          "type": "address"
        },
        {
          "internalType": "bytes",
          "name": "_extraData",
          "type": "bytes"
        }
      ],
      "name": "lzReceive",
      "outputs": [],
      "stateMutability": "payable",
      "type": "function"
    },
    {
      "inputs": [],
      "name": "nextIndex",
      "outputs": [
        {
          "internalType": "uint256",
          "name": "",
          "type": "uint256"
        }
      ],
      "stateMutability": "view",
      "type": "function"
    },
    {
      "inputs": [
        {
          "internalType": "uint32",
          "name": "",
          "type": "uint32"
        },
        {
          "internalType": "bytes32",
          "name": "",
          "type": "bytes32"
        }
      ],
      "name": "nextNonce",
      "outputs": [
        {
          "internalType": "uint64",
          "name": "nonce",
          "type": "uint64"
        }
      ],
      "stateMutability": "view",
      "type": "function"
    },
    {
      "inputs": [
        {
          "internalType": "bytes32",
          "name": "",
          "type": "bytes32"
        }
      ],
      "name": "nullifierUsed",
      "outputs": [
        {
          "internalType": "bool",
          "name": "",
          "type": "bool"
        }
      ],
      "stateMutability": "view",
      "type": "function"
    },
    {
      "inputs": [],
      "name": "oAppVersion",
      "outputs": [
        {
          "internalType": "uint64",
          "name": "senderVersion",
          "type": "uint64"
        },
        {
          "internalType": "uint64",
          "name": "receiverVersion",
          "type": "uint64"
        }
      ],
      "stateMutability": "pure",
      "type": "function"
    },
    {
      "inputs": [],
      "name": "owner",
      "outputs": [
        {
          "internalType": "address",
          "name": "",
          "type": "address"
        }
      ],
      "stateMutability": "view",
      "type": "function"
    },
    {
      "inputs": [
        {
          "internalType": "uint32",
          "name": "eid",
          "type": "uint32"
        }
      ],
      "name": "peers",
      "outputs": [
        {
          "internalType": "bytes32",
          "name": "peer",
          "type": "bytes32"
        }
      ],
      "stateMutability": "view",
      "type": "function"
    },
    {
      "inputs": [
        {
          "internalType": "uint32",
          "name": "_dstEid",
          "type": "uint32"
        },
        {
          "internalType": "uint256[]",
          "name": "notes",
          "type": "uint256[]"
        },
        {
          "internalType": "bytes",
          "name": "_options",
          "type": "bytes"
        },
        {
          "internalType": "bool",
          "name": "_payInLzToken",
          "type": "bool"
        }
      ],
      "name": "quote",
      "outputs": [
        {
          "internalType": "uint256",
          "name": "nativeFee",
          "type": "uint256"
        },
        {
          "internalType": "uint256",
          "name": "lzTokenFee",
          "type": "uint256"
        }
      ],
      "stateMutability": "view",
      "type": "function"
    },
    {
      "inputs": [],
      "name": "renounceOwnership",
      "outputs": [],
      "stateMutability": "nonpayable",
      "type": "function"
    },
    {
      "inputs": [
        {
          "internalType": "bytes32",
          "name": "role",
          "type": "bytes32"
        },
        {
          "internalType": "address",
          "name": "callerConfirmation",
          "type": "address"
        }
      ],
      "name": "renounceRole",
      "outputs": [],
      "stateMutability": "nonpayable",
      "type": "function"
    },
    {
      "inputs": [
        {
          "internalType": "bytes32",
          "name": "role",
          "type": "bytes32"
        },
        {
          "internalType": "address",
          "name": "account",
          "type": "address"
        }
      ],
      "name": "revokeRole",
      "outputs": [],
      "stateMutability": "nonpayable",
      "type": "function"
    },
    {
      "inputs": [
        {
          "internalType": "uint256",
          "name": "",
          "type": "uint256"
        }
      ],
      "name": "roots",
      "outputs": [
        {
          "internalType": "uint256",
          "name": "",
          "type": "uint256"
        }
      ],
      "stateMutability": "view",
      "type": "function"
    },
    {
      "inputs": [
        {
          "internalType": "address",
          "name": "_delegate",
          "type": "address"
        }
      ],
      "name": "setDelegate",
      "outputs": [],
      "stateMutability": "nonpayable",
      "type": "function"
    },
    {
      "inputs": [
        {
          "internalType": "uint32",
          "name": "_eid",
          "type": "uint32"
        },
        {
          "internalType": "bytes32",
          "name": "_peer",
          "type": "bytes32"
        }
      ],
      "name": "setPeer",
      "outputs": [],
      "stateMutability": "nonpayable",
      "type": "function"
    },
    {
      "inputs": [
        {
          "internalType": "bytes4",
          "name": "interfaceId",
          "type": "bytes4"
        }
      ],
      "name": "supportsInterface",
      "outputs": [
        {
          "internalType": "bool",
          "name": "",
          "type": "bool"
        }
      ],
      "stateMutability": "view",
      "type": "function"
    },
    {
      "inputs": [
        {
          "internalType": "bytes",
          "name": "_proof",
          "type": "bytes"
        },
        {
          "internalType": "bytes32[]",
          "name": "_publicInputs",
          "type": "bytes32[]"
        },
        {
          "internalType": "bytes[]",
          "name": "_payload",
          "type": "bytes[]"
        }
      ],
      "name": "transfer",
      "outputs": [],
      "stateMutability": "nonpayable",
      "type": "function"
    },
    {
      "inputs": [
        {
          "internalType": "address",
          "name": "newOwner",
          "type": "address"
        }
      ],
      "name": "transferOwnership",
      "outputs": [],
      "stateMutability": "nonpayable",
      "type": "function"
    },
    {
      "inputs": [],
      "name": "transferVerifier",
      "outputs": [
        {
          "internalType": "contract TransferVerifier",
          "name": "",
          "type": "address"
        }
      ],
      "stateMutability": "view",
      "type": "function"
    },
    {
      "inputs": [
        {
          "internalType": "uint32",
          "name": "_dstEid",
          "type": "uint32"
        },
        {
          "internalType": "bytes",
          "name": "_proof",
          "type": "bytes"
        },
        {
          "internalType": "bytes32[]",
          "name": "_publicInputs",
          "type": "bytes32[]"
        },
        {
          "internalType": "bytes",
          "name": "_options",
          "type": "bytes"
        },
        {
          "internalType": "bytes[]",
          "name": "_payload",
          "type": "bytes[]"
        }
      ],
      "name": "warp",
      "outputs": [],
      "stateMutability": "payable",
      "type": "function"
    },
    {
      "inputs": [],
      "name": "warpVerifier",
      "outputs": [
        {
          "internalType": "contract WarpVerifier",
          "name": "",
          "type": "address"
        }
      ],
      "stateMutability": "view",
      "type": "function"
    },
    {
      "inputs": [
        {
          "internalType": "bytes",
          "name": "_proof",
          "type": "bytes"
        },
        {
          "internalType": "bytes32[]",
          "name": "_publicInputs",
          "type": "bytes32[]"
        }
      ],
      "name": "withdraw",
      "outputs": [],
      "stateMutability": "nonpayable",
      "type": "function"
    },
    {
      "inputs": [],
      "name": "withdrawVerifier",
      "outputs": [
        {
          "internalType": "contract WithdrawVerifier",
          "name": "",
          "type": "address"
        }
      ],
      "stateMutability": "view",
      "type": "function"
    },
    {
      "inputs": [
        {
          "internalType": "uint256",
          "name": "i",
          "type": "uint256"
        }
      ],
      "name": "zeros",
      "outputs": [
        {
          "internalType": "uint256",
          "name": "",
          "type": "uint256"
        }
      ],
      "stateMutability": "pure",
      "type": "function"
    },
    {
      "stateMutability": "payable",
      "type": "receive"
    }
  ],
  "transactionHash": "0x30a2e77ebebe39b456243fe311a948b3c35838a20c9ef5fc327acb10ecdc653c",
  "args": [
    "0x1a44076050125825900e736c501f859c50fE728c",
    "0xef5f762010De2d72609A6243af59F29A0563c99c",
    "0x9558A77FF5f42922c49089E691254F8B79511377",
    "0x14F9480d37E20AD99277394aa30446AAE9980852",
    "0x348d05e429E74D178F5C7A2b0E19c4039caa27e7",
    "0x75fDD175d10e0E49dEb938198dBA3De6A7EbCabe"
  ],
  "numDeployments": 1,
  "solcInputHash": "ff2cf19e98bd3f11c8dc979ea849e6a9",
  "bytecode": "0x60c06040526002805463ffffffff1916905560006003557f2561bf26f818282a3be40719542054d2173eb0d38539e8a8d3cff22f29fd2384600d5534801561004657600080fd5b5060405161659e38038061659e83398101604081905261006591610384565b8585818181818a600c8060808181525050600181610083919061040e565b61008e906002610508565b60045560405161009d9061035b565b604051809103906000f0801580156100b9573d6000803e3d6000fd5b50600580546001600160a01b0319166001600160a01b039283161790556000805260016020527f124005ad54174bbcb8c2dd053ea318daa80106cdcc518731504b771d6006123f7fa6eef7e35abe7026729641147f7915573c7e97b47efa546f5f6e3230263bcb49558216905061014a57604051631e4fbdf760e01b81526000600482015260240160405180910390fd5b61015381610259565b506001600160a01b0380831660a052811661018157604051632d618d8160e21b815260040160405180910390fd5b60a05160405163ca5eb5e160e01b81526001600160a01b0383811660048301529091169063ca5eb5e190602401600060405180830381600087803b1580156101c857600080fd5b505af11580156101dc573d6000803e3d6000fd5b5050600980546001600160a01b03808f166001600160a01b031992831617909255600a80548e8416908316179055600b80548d8416908316179055600c8054928c16929091169190911790555061023f965060009550339450506102ab92505050565b50600d5461024d90336102ab565b5050505050505061051b565b600680546001600160a01b038381166001600160a01b0319831681179093556040519116919082907f8be0079c531659141344cd1fd0a4f28419497f9722a3daafe3b4186f6b6457e090600090a35050565b60008281526008602090815260408083206001600160a01b038516845290915281205460ff166103515760008381526008602090815260408083206001600160a01b03861684529091529020805460ff191660011790556103093390565b6001600160a01b0316826001600160a01b0316847f2f8788117e7eff1d82e926ec794901d17c78024a50270940304540a733656f0d60405160405180910390a4506001610355565b5060005b92915050565b6125d280613fcc83390190565b80516001600160a01b038116811461037f57600080fd5b919050565b60008060008060008060c0878903121561039d57600080fd5b6103a687610368565b95506103b460208801610368565b94506103c260408801610368565b93506103d060608801610368565b92506103de60808801610368565b91506103ec60a08801610368565b90509295509295509295565b634e487b7160e01b600052601160045260246000fd5b81810381811115610355576103556103f8565b6001815b600184111561045c57808504811115610440576104406103f8565b600184161561044e57908102905b60019390931c928002610425565b935093915050565b60008261047357506001610355565b8161048057506000610355565b816001811461049657600281146104a0576104bc565b6001915050610355565b60ff8411156104b1576104b16103f8565b50506001821b610355565b5060208310610133831016604e8410600b84101617156104df575081810a610355565b6104ec6000198484610421565b8060001904821115610500576105006103f8565b029392505050565b60006105148383610464565b9392505050565b60805160a051613a5b61057160003960008181610477015281816108e701528181611bcc0152818161249d01528181612653015281816127f201526128ab0152600081816102dd01526120070152613a5b6000f3fe6080604052600436106102525760003560e01c806382413eac11610138578063b906a418116100b0578063d547741f11610077578063d547741f146107eb578063e82955881461080b578063f178e47c1461082b578063f2fde38b14610858578063fc7e9c6f14610878578063ff7bd03d1461088e57005b8063b906a4181461073c578063bb0b6a531461075c578063c2b40ae414610789578063ca5eb5e1146107b6578063cd87a3b4146107d657005b806390eeb02b116100ff57806390eeb02b1461066157806391d1485414610693578063a217fddf146106b3578063a38a8a8c146106c8578063a6232a93146106e8578063b42147cd1461070857005b806382413eac146105b457806384746900146105e3578063864eb164146106035780638da5cb5b146106235780638daed5281461064157005b806336568abe116101cb578063715018a611610192578063715018a6146104b957806375c3c0ce146104ce5780637bb10071146105035780637d25a05e146105335780637ecf686d1461056e57806380fc74981461059e57005b806336568abe146104125780635bb93995146104325780635cd233f7146104525780635e280f111461046557806367843a5b1461049957005b806317442b701161021a57806317442b7014610332578063248a9ca31461035457806326120c88146103845780632f2ff15d146103bc5780633400288b146103dc578063353efdcf146103fc57005b806301ffc9a714610254578063063bde24146102895780630ef26743146102cb57806313137d65146102ff57806313425efa14610312575b005b34801561026057600080fd5b5061027461026f366004612bd8565b6108ae565b60405190151581526020015b60405180910390f35b34801561029557600080fd5b506102bd7f30644e72e131a029b85045b68181585d2833e84879b9709143e1f593f000000181565b604051908152602001610280565b3480156102d757600080fd5b506102bd7f000000000000000000000000000000000000000000000000000000000000000081565b61025261030d366004612c77565b6108e5565b34801561031e57600080fd5b5061025261032d366004612d71565b6109a5565b34801561033e57600080fd5b5060408051600181526002602082015201610280565b34801561036057600080fd5b506102bd61036f366004612e39565b60009081526008602052604090206001015490565b34801561039057600080fd5b506009546103a4906001600160a01b031681565b6040516001600160a01b039091168152602001610280565b3480156103c857600080fd5b506102526103d7366004612e52565b610da8565b3480156103e857600080fd5b506102526103f7366004612e96565b610dd3565b34801561040857600080fd5b506102bd600d5481565b34801561041e57600080fd5b5061025261042d366004612e52565b610de9565b34801561043e57600080fd5b506102bd61044d366004612ec0565b610e21565b610252610460366004612ee2565b610eba565b34801561047157600080fd5b506103a47f000000000000000000000000000000000000000000000000000000000000000081565b3480156104a557600080fd5b506102526104b4366004612fc8565b6112f4565b3480156104c557600080fd5b506102526116fa565b3480156104da57600080fd5b506104ee6104e936600461310d565b61170e565b60408051928352602083019190915201610280565b34801561050f57600080fd5b5061027461051e36600461319f565b600f6020526000908152604090205460ff1681565b34801561053f57600080fd5b5061055661054e366004612e96565b600092915050565b6040516001600160401b039091168152602001610280565b34801561057a57600080fd5b50610274610589366004612e39565b600e6020526000908152604090205460ff1681565b3480156105aa57600080fd5b506102bd60045481565b3480156105c057600080fd5b506102746105cf3660046131bc565b6001600160a01b0381163014949350505050565b3480156105ef57600080fd5b506102526105fe366004613222565b61178d565b34801561060f57600080fd5b50600b546103a4906001600160a01b031681565b34801561062f57600080fd5b506006546001600160a01b03166103a4565b34801561064d57600080fd5b50600a546103a4906001600160a01b031681565b34801561066d57600080fd5b5060025461067e9063ffffffff1681565b60405163ffffffff9091168152602001610280565b34801561069f57600080fd5b506102746106ae366004612e52565b611ac4565b3480156106bf57600080fd5b506102bd600081565b3480156106d457600080fd5b50600c546103a4906001600160a01b031681565b3480156106f457600080fd5b50610274610703366004612e39565b611aef565b34801561071457600080fd5b506102bd7f124005ad54174bbcb8c2dd053ea318daa80106cdcc518731504b771d6006123f81565b34801561074857600080fd5b506102526107573660046132c5565b611b6e565b34801561076857600080fd5b506102bd6107773660046132f3565b60076020526000908152604090205481565b34801561079557600080fd5b506102bd6107a4366004612e39565b60016020526000908152604090205481565b3480156107c257600080fd5b506102526107d136600461319f565b611ba5565b3480156107e257600080fd5b5061067e606481565b3480156107f757600080fd5b50610252610806366004612e52565b611c2b565b34801561081757600080fd5b506102bd610826366004612e39565b611c50565b34801561083757600080fd5b506102bd610846366004612e39565b60006020819052908152604090205481565b34801561086457600080fd5b5061025261087336600461319f565b611e9a565b34801561088457600080fd5b506102bd60035481565b34801561089a57600080fd5b506102746108a936600461330e565b611ed8565b60006001600160e01b03198216637965db0b60e01b14806108df57506301ffc9a760e01b6001600160e01b03198316145b92915050565b7f00000000000000000000000000000000000000000000000000000000000000006001600160a01b03163314610935576040516391ac5e4f60e01b81523360048201526024015b60405180910390fd5b6020870180359061094f9061094a908a6132f3565b611f0e565b1461098d5761096160208801886132f3565b60405163309afaf360e21b815263ffffffff90911660048201526020880135602482015260440161092c565b61099c87878787878787611f4a565b50505050505050565b600d546109b181611f9c565b6000896001600160a01b031663313ce5676040518163ffffffff1660e01b8152600401602060405180830381865afa1580156109f1573d6000803e3d6000fd5b505050506040513d601f19601f82011682018060405250810190610a15919061332a565b905060006001600160a01b038b166323b872dd3330610a3586600a61344a565b8e6001600160401b0316610a499190613459565b6040516001600160e01b031960e086901b1681526001600160a01b03938416600482015292909116602483015260448201526064016020604051808303816000875af1158015610a9d573d6000803e3d6000fd5b505050506040513d601f19601f82011682018060405250810190610ac19190613470565b905080610b105760405162461bcd60e51b815260206004820152601a60248201527f6661696c656420746f207472616e73666572206465706f736974000000000000604482015260640161092c565b600954604051633a94343960e21b81526000916001600160a01b03169063ea50d0e490610b47908d908d908d908d906004016134b6565b602060405180830381865afa158015610b64573d6000803e3d6000fd5b505050506040513d601f19601f82011682018060405250810190610b889190613470565b905080610bd05760405162461bcd60e51b8152602060048201526016602482015275496e76616c6964206465706f7369742070726f6f662160501b604482015260640161092c565b87876001818110610be357610be3613502565b9050602002013560001c6001600160a01b03168c6001600160a01b031614610c465760405162461bcd60e51b815260206004820152601660248201527508aa486646040c2c8c8e4cae6e640dad2e6dac2e8c6d60531b604482015260640161092c565b87876002818110610c5957610c59613502565b9050602002013560001c6001600160401b03168b6001600160401b031614610cc35760405162461bcd60e51b815260206004820152601860248201527f4164647265737320616d6f756e7420696e636f72726563740000000000000000604482015260640161092c565b610ce888886000818110610cd957610cd9613502565b9050602002013560001c611fa6565b5060005b600381108015610cfb57508581105b15610d9957868682818110610d1257610d12613502565b9050602002810190610d249190613518565b159050610d87577f1350ba861189904691f5a79791c8b0eb3c5ea51a8954ae413a167e05c66ca1e0878783818110610d5e57610d5e613502565b9050602002810190610d709190613518565b604051610d7e92919061355e565b60405180910390a15b80610d918161357a565b915050610cec565b50505050505050505050505050565b600082815260086020526040902060010154610dc381611f9c565b610dcd8383612196565b50505050565b610ddb61222a565b610de58282612257565b5050565b6001600160a01b0381163314610e125760405163334bd91960e11b815260040160405180910390fd5b610e1c82826122ac565b505050565b600554600090610eb3906001600160a01b031663055d8d54610e4286612319565b610e4b86612319565b6040516001600160e01b031960e085901b16815260048101929092526024820152604401602060405180830381865afa158015610e8c573d6000803e3d6000fd5b505050506040513d601f19601f82011682018060405250810190610eb09190613593565b90565b9392505050565b610edf86866000818110610ed057610ed0613502565b9050602002013560001c611aef565b610efb5760405162461bcd60e51b815260040161092c906135ac565b600c54604051633a94343960e21b81526000916001600160a01b03169063ea50d0e490610f32908c908c908c908c906004016134b6565b602060405180830381865afa158015610f4f573d6000803e3d6000fd5b505050506040513d601f19601f82011682018060405250810190610f739190613470565b905080610fb75760405162461bcd60e51b815260206004820152601260248201527124b73b30b634b2103bb0b93810383937b7b360711b604482015260640161092c565b60075b600981101561106e576000888883818110610fd757610fd7613502565b9050602002013514611066576000888883818110610ff757610ff7613502565b6001600160a01b03602091820293909301359283166000908152600f90915260409020549192505060ff166110645760405162461bcd60e51b8152602060048201526013602482015272139bdd0818481cdd5c1c1bdc9d19590813d195606a1b604482015260640161092c565b505b600101610fba565b5060015b6003811161118957600088888381811061108e5761108e613502565b905060200201351461117757600e60008989848181106110b0576110b0613502565b602090810292909201358352508101919091526040016000205460ff16156110ea5760405162461bcd60e51b815260040161092c906135d3565b6001600e60008a8a8581811061110257611102613502565b90506020020135815260200190815260200160002060006101000a81548160ff02191690831515021790555087878281811061114057611140613502565b9050602002013560001c7f49dad0e89c31a259d3e177fa5c4bb23dfb7bfbc2afce873328262a97dd39277860405160405180910390a25b806111818161357a565b915050611072565b5060006111968888612323565b90506000816040516020016111ab919061360a565b60408051601f198184030181526020601f8a01819004810284018101909252888352925061120f918e918491908b908b90819084018382808284376000920182905250604080518082019091523481526020810191909152925030915061246a9050565b5063ffffffff8c166000908152600760205260409020546112348d828c8c8c8c612575565b60005b60038110801561124657508581105b156112e45786868281811061125d5761125d613502565b905060200281019061126f9190613518565b1590506112d2577f1350ba861189904691f5a79791c8b0eb3c5ea51a8954ae413a167e05c66ca1e08787838181106112a9576112a9613502565b90506020028101906112bb9190613518565b6040516112c992919061355e565b60405180910390a15b806112dc8161357a565b915050611237565b5050505050505050505050505050565b61130a82826000818110610ed057610ed0613502565b6113265760405162461bcd60e51b815260040161092c906135ac565b600b54604051633a94343960e21b81526000916001600160a01b03169063ea50d0e49061135d9088908890889088906004016134b6565b602060405180830381865afa15801561137a573d6000803e3d6000fd5b505050506040513d601f19601f8201168201806040525081019061139e9190613470565b9050806113e65760405162461bcd60e51b815260206004820152601660248201527524b73b30b634b2103bb4ba34323930bb90383937b7b360511b604482015260640161092c565b60015b6003811161150057600084848381811061140557611405613502565b90506020020135146114ee57600e600085858481811061142757611427613502565b602090810292909201358352508101919091526040016000205460ff16156114615760405162461bcd60e51b815260040161092c906135d3565b6001600e600086868581811061147957611479613502565b90506020020135815260200190815260200160002060006101000a81548160ff0219169083151502179055508383828181106114b7576114b7613502565b9050602002013560001c7f49dad0e89c31a259d3e177fa5c4bb23dfb7bfbc2afce873328262a97dd39277860405160405180910390a25b806114f88161357a565b9150506113e9565b5060005b60038110156116f257600061151a82600461364d565b9050600061152983600761364d565b9050600061153884600a61364d565b9050600087878581811061154e5761154e613502565b9050602002013560001c9050600088888581811061156e5761156e613502565b9050602002013560001c9050600089898581811061158e5761158e613502565b602002919091013591505081156116e0576000836001600160a01b031663313ce5676040518163ffffffff1660e01b8152600401602060405180830381865afa1580156115df573d6000803e3d6000fd5b505050506040513d601f19601f82011682018060405250810190611603919061332a565b9050600061161282600a61344a565b61161c9085613459565b60405163a9059cbb60e01b81526001600160a01b0385811660048301526024820183905291925060009187169063a9059cbb906044016020604051808303816000875af1158015611671573d6000803e3d6000fd5b505050506040513d601f19601f820116820180604052508101906116959190613470565b9050806116dc5760405162461bcd60e51b8152602060048201526015602482015274151bdad95b881d1c985b9cd9995c8819985a5b1959605a1b604482015260640161092c565b5050505b50506001909401935061150492505050565b505050505050565b61170261222a565b61170c60006125eb565b565b600080600086604051602001611724919061360a565b60408051601f198184030181526020601f89018190048102840181019092528783529250600091611775918b9185918b908b90819084018382808284376000920191909152508b925061263d915050565b8051602090910151909a909950975050505050505050565b6117a384846000818110610ed057610ed0613502565b6117bf5760405162461bcd60e51b815260040161092c906135ac565b600a54604051633a94343960e21b81526000916001600160a01b03169063ea50d0e4906117f6908a908a908a908a906004016134b6565b602060405180830381865afa158015611813573d6000803e3d6000fd5b505050506040513d601f19601f820116820180604052508101906118379190613470565b90508061187f5760405162461bcd60e51b815260206004820152601660248201527524b73b30b634b2103a3930b739b332b910383937b7b360511b604482015260640161092c565b60015b61188e6003600161364d565b81101561199a5760008686838181106118a9576118a9613502565b905060200201351461199257600e60008787848181106118cb576118cb613502565b602090810292909201358352508101919091526040016000205460ff16156119055760405162461bcd60e51b815260040161092c906135d3565b6001600e600088888581811061191d5761191d613502565b90506020020135815260200190815260200160002060006101000a81548160ff02191690831515021790555085858281811061195b5761195b613502565b9050602002013560001c7f49dad0e89c31a259d3e177fa5c4bb23dfb7bfbc2afce873328262a97dd39277860405160405180910390a25b600101611882565b5060006119a96003600161364d565b90505b60036119b981600161364d565b6119c3919061364d565b811015611a095760008686838181106119de576119de613502565b9050602002013514611a01576119ff868683818110610cd957610cd9613502565b505b6001016119ac565b5060005b600381108015611a1c57508281105b15611aba57838382818110611a3357611a33613502565b9050602002810190611a459190613518565b159050611aa8577f1350ba861189904691f5a79791c8b0eb3c5ea51a8954ae413a167e05c66ca1e0848483818110611a7f57611a7f613502565b9050602002810190611a919190613518565b604051611a9f92919061355e565b60405180910390a15b80611ab28161357a565b915050611a0d565b5050505050505050565b60009182526008602090815260408084206001600160a01b0393909316845291905290205460ff1690565b600081600003611b0157506000919050565b60025463ffffffff16805b63ffffffff81166000908152600160205260409020548403611b32575060019392505050565b8063ffffffff16600003611b44575060645b80611b4e81613660565b9150508163ffffffff168163ffffffff1603611b0c575060009392505050565b6000611b7981611f9c565b506001600160a01b03919091166000908152600f60205260409020805460ff1916911515919091179055565b611bad61222a565b60405163ca5eb5e160e01b81526001600160a01b0382811660048301527f0000000000000000000000000000000000000000000000000000000000000000169063ca5eb5e190602401600060405180830381600087803b158015611c1057600080fd5b505af1158015611c24573d6000803e3d6000fd5b5050505050565b600082815260086020526040902060010154611c4681611f9c565b610dcd83836122ac565b600081600003611c8157507f1e2856f9f722631c878a92dc1d84283d04b76df3e1831492bdf7098c1e65e478919050565b81600103611cb057507f2c2eecb1b14035bfd9765e84195684b401a84fdb58c3c03f1bcea86dcf0c8105919050565b81600203611cdf57507f237e412a71db31e5769f63d92346a09dd0f30b9c335e9d9aa96b6625eb537445919050565b81600303611d0e57507f0b3ff120d61a7de2da3d80ff99d393796805c74be5c39e8a4c7436d1c65dad4c919050565b81600403611d3d57507f0fc58e21665302678bef68714d9e5889583071f7bd3cf018b64fafc51b0a9cf3919050565b81600503611d6c57507f235df7c585524ed8a26aea20a0fb168038f10df71d84720c9a8c1b3e78e3b6cd919050565b81600603611d9b57507f1c6cabee394ea24dc09eab1788f7f62b367e95789f883e33690d94215d819264919050565b81600703611dca57507f09bec327ab2c8dda5d2d435cd267cb21e71f21371a01739885817eb1625d8976919050565b81600803611df957507f2d35519ad7061578be50cbbfe040327843f6b4cdf1458e01b5f9737dbaf82b18919050565b81600903611e2857507f0f86c9e9c9e689394a4944bb87291a3f55cc930b21432fccf41b8267f1a98d6f919050565b81600a03611e5757507f181c9ba70900093b180c96f55cc2b1d73d60b8ab613344cbba83b33cbcc94e2b919050565b60405162461bcd60e51b8152602060048201526013602482015272496e646578206f7574206f6620626f756e647360681b604482015260640161092c565b919050565b611ea261222a565b6001600160a01b038116611ecc57604051631e4fbdf760e01b81526000600482015260240161092c565b611ed5816125eb565b50565b6000602082018035906007908390611ef090866132f3565b63ffffffff1681526020810191909152604001600020541492915050565b63ffffffff8116600090815260076020526040812054806108df5760405163f6ff4fb760e01b815263ffffffff8416600482015260240161092c565b6000611f5885870187613680565b905060005b8151811015611f9157611f88828281518110611f7b57611f7b613502565b6020026020010151611fa6565b50600101611f5d565b505050505050505050565b611ed5813361271e565b600354600454600091908103611fea5760405162461bcd60e51b8152602060048201526009602482015268151c995948119d5b1b60ba1b604482015260640161092c565b6000818152602081905260408120849055819084905b61202b60017f00000000000000000000000000000000000000000000000000000000000000006136b4565b8110156120fd57600061203f6002856136dd565b159050600081612059576120546001866136b4565b612064565b61206485600161364d565b602084811b8217600081815291829052604082205492935091908190036120915761208e85611c50565b90505b83156120a8576120a18682610e21565b95506120b5565b6120b28187610e21565b95505b6120c06002886136f1565b9650856000806120dc6120d489600161364d565b60201b8b1790565b81526020810191909152604001600020555050600190920191506120009050565b506002546000906064906121189063ffffffff166001613705565b6121229190613721565b6002805463ffffffff191663ffffffff8316908117909155600090815260016020819052604090912084905590915061215c90859061364d565b600355604051869085907f604f5a492f8c1622a2e239876074a13b33ec11384fe2b310339ece35e8eecac790600090a35091949350505050565b60006121a28383611ac4565b6122225760008381526008602090815260408083206001600160a01b03861684529091529020805460ff191660011790556121da3390565b6001600160a01b0316826001600160a01b0316847f2f8788117e7eff1d82e926ec794901d17c78024a50270940304540a733656f0d60405160405180910390a45060016108df565b5060006108df565b6006546001600160a01b0316331461170c5760405163118cdaa760e01b815233600482015260240161092c565b63ffffffff8216600081815260076020908152604091829020849055815192835282018390527f238399d427b947898edb290f5ff0f9109849b1c3ba196a42e35f00c50a54b98b910160405180910390a15050565b60006122b88383611ac4565b156122225760008381526008602090815260408083206001600160a01b0386168085529252808320805460ff1916905551339286917ff6391f5c32d9c69d2a47ea670b442974b53935d1edc7fd64eb21e047a839171b9190a45060016108df565b80611e9581612757565b6040805160038082526080820190925260609160009190602082018480368337019050509050600060045b600681116123cf57600086868381811061236a5761236a613502565b90506020020135146123bd5785858281811061238857612388613502565b9050602002013560001c8383815181106123a4576123a4613502565b6020908102919091010152816123b98161357a565b9250505b806123c78161357a565b91505061234e565b506000816001600160401b038111156123ea576123ea613037565b604051908082528060200260200182016040528015612413578160200160208202803683370190505b50905060005b828110156124605783818151811061243357612433613502565b602002602001015182828151811061244d5761244d613502565b6020908102919091010152600101612419565b5095945050505050565b612472612b91565b600061248184600001516127c6565b60208501519091501561249b5761249b84602001516127ee565b7f00000000000000000000000000000000000000000000000000000000000000006001600160a01b0316632637a450826040518060a001604052808b63ffffffff1681526020016124eb8c611f0e565b81526020018a815260200189815260200160008960200151111515815250866040518463ffffffff1660e01b815260040161252792919061378f565b60806040518083038185885af1158015612545573d6000803e3d6000fd5b50505050506040513d601f19601f8201168201806040525081019061256a91906138c2565b979650505050505050565b60075b600a81101561099c57600085858381811061259557612595613502565b60200291909101359150506001600160a01b038116156125e2576125e288888389896125c288600361364d565b8181106125d1576125d1613502565b9050602002013560001c88886128d0565b50600101612578565b600680546001600160a01b038381166001600160a01b0319831681179093556040519116919082907f8be0079c531659141344cd1fd0a4f28419497f9722a3daafe3b4186f6b6457e090600090a35050565b60408051808201909152600080825260208201527f00000000000000000000000000000000000000000000000000000000000000006001600160a01b031663ddc28c586040518060a001604052808863ffffffff1681526020016126a089611f0e565b8152602001878152602001868152602001851515815250306040518363ffffffff1660e01b81526004016126d592919061378f565b6040805180830381865afa1580156126f1573d6000803e3d6000fd5b505050506040513d601f19601f8201168201806040525081019061271591906138de565b95945050505050565b6127288282611ac4565b610de55760405163e2517d3f60e01b81526001600160a01b03821660048201526024810183905260440161092c565b7f30644e72e131a029b85045b68181585d2833e84879b9709143e1f593f00000018110611ed55760405162461bcd60e51b815260206004820152601960248201527f4669656c643a20696e70757420697320746f6f206c6172676500000000000000604482015260640161092c565b60008134146127ea576040516304fb820960e51b815234600482015260240161092c565b5090565b60007f00000000000000000000000000000000000000000000000000000000000000006001600160a01b031663e4fe1d946040518163ffffffff1660e01b8152600401602060405180830381865afa15801561284e573d6000803e3d6000fd5b505050506040513d601f19601f8201168201806040525081019061287291906138fa565b90506001600160a01b03811661289b576040516329b99a9560e11b815260040160405180910390fd5b610de56001600160a01b038216337f000000000000000000000000000000000000000000000000000000000000000085612acb565b6000846001600160a01b031663313ce5676040518163ffffffff1660e01b8152600401602060405180830381865afa158015612910573d6000803e3d6000fd5b505050506040513d601f19601f82011682018060405250810190612934919061332a565b61293f90600a61344a565b6129499085613459565b905060006040518060e001604052808963ffffffff16815260200188815260200183815260200183815260200185858080601f016020809104026020016040519081016040528093929190818152602001838380828437600092018290525093855250506040805160208181018352848252808601919091528151908101825283815293810193909352509051633b6f743b60e01b8152919250906001600160a01b03881690633b6f743b90612a05908590859060040161398d565b6040805180830381865afa158015612a21573d6000803e3d6000fd5b505050506040513d601f19601f82011682018060405250810190612a4591906138de565b805160405163c7c7f5b360e01b81529192506001600160a01b0389169163c7c7f5b39190612a7b908690869033906004016139b1565b60c06040518083038185885af1158015612a99573d6000803e3d6000fd5b50505050506040513d601f19601f82011682018060405250810190612abe91906139f0565b5050505050505050505050565b604080516001600160a01b038581166024830152841660448201526064808201849052825180830390910181526084909101909152602080820180516001600160e01b03166323b872dd60e01b1781528251610dcd938893909260009283929183919082885af180612b43576040513d6000823e3d81fd5b50506000513d91508115612b5b578060011415612b68565b6001600160a01b0384163b155b15610dcd57604051635274afe760e01b81526001600160a01b038516600482015260240161092c565b60405180606001604052806000801916815260200160006001600160401b03168152602001612bd3604051806040016040528060008152602001600081525090565b905290565b600060208284031215612bea57600080fd5b81356001600160e01b031981168114610eb357600080fd5b600060608284031215612c1457600080fd5b50919050565b60008083601f840112612c2c57600080fd5b5081356001600160401b03811115612c4357600080fd5b602083019150836020828501011115612c5b57600080fd5b9250929050565b6001600160a01b0381168114611ed557600080fd5b600080600080600080600060e0888a031215612c9257600080fd5b612c9c8989612c02565b96506060880135955060808801356001600160401b03811115612cbe57600080fd5b612cca8a828b01612c1a565b90965094505060a0880135612cde81612c62565b925060c08801356001600160401b03811115612cf957600080fd5b612d058a828b01612c1a565b989b979a50959850939692959293505050565b6001600160401b0381168114611ed557600080fd5b60008083601f840112612d3f57600080fd5b5081356001600160401b03811115612d5657600080fd5b6020830191508360208260051b8501011115612c5b57600080fd5b60008060008060008060008060a0898b031215612d8d57600080fd5b8835612d9881612c62565b97506020890135612da881612d18565b965060408901356001600160401b03811115612dc357600080fd5b612dcf8b828c01612c1a565b90975095505060608901356001600160401b03811115612dee57600080fd5b612dfa8b828c01612d2d565b90955093505060808901356001600160401b03811115612e1957600080fd5b612e258b828c01612d2d565b999c989b5096995094979396929594505050565b600060208284031215612e4b57600080fd5b5035919050565b60008060408385031215612e6557600080fd5b823591506020830135612e7781612c62565b809150509250929050565b803563ffffffff81168114611e9557600080fd5b60008060408385031215612ea957600080fd5b612eb283612e82565b946020939093013593505050565b60008060408385031215612ed357600080fd5b50508035926020909101359150565b600080600080600080600080600060a08a8c031215612f0057600080fd5b612f098a612e82565b985060208a01356001600160401b03811115612f2457600080fd5b612f308c828d01612c1a565b90995097505060408a01356001600160401b03811115612f4f57600080fd5b612f5b8c828d01612d2d565b90975095505060608a01356001600160401b03811115612f7a57600080fd5b612f868c828d01612c1a565b90955093505060808a01356001600160401b03811115612fa557600080fd5b612fb18c828d01612d2d565b915080935050809150509295985092959850929598565b60008060008060408587031215612fde57600080fd5b84356001600160401b03811115612ff457600080fd5b61300087828801612c1a565b90955093505060208501356001600160401b0381111561301f57600080fd5b61302b87828801612d2d565b95989497509550505050565b634e487b7160e01b600052604160045260246000fd5b604051601f8201601f191681016001600160401b038111828210171561307557613075613037565b604052919050565b600082601f83011261308e57600080fd5b81356001600160401b038111156130a7576130a7613037565b8060051b6130b76020820161304d565b918252602081850181019290810190868411156130d357600080fd5b6020860192505b838310156130f55782358252602092830192909101906130da565b9695505050505050565b8015158114611ed557600080fd5b60008060008060006080868803121561312557600080fd5b61312e86612e82565b945060208601356001600160401b0381111561314957600080fd5b6131558882890161307d565b94505060408601356001600160401b0381111561317157600080fd5b61317d88828901612c1a565b9094509250506060860135613191816130ff565b809150509295509295909350565b6000602082840312156131b157600080fd5b8135610eb381612c62565b60008060008060a085870312156131d257600080fd5b6131dc8686612c02565b935060608501356001600160401b038111156131f757600080fd5b61320387828801612c1a565b909450925050608085013561321781612c62565b939692955090935050565b6000806000806000806060878903121561323b57600080fd5b86356001600160401b0381111561325157600080fd5b61325d89828a01612c1a565b90975095505060208701356001600160401b0381111561327c57600080fd5b61328889828a01612d2d565b90955093505060408701356001600160401b038111156132a757600080fd5b6132b389828a01612d2d565b979a9699509497509295939492505050565b600080604083850312156132d857600080fd5b82356132e381612c62565b91506020830135612e77816130ff565b60006020828403121561330557600080fd5b610eb382612e82565b60006060828403121561332057600080fd5b610eb38383612c02565b60006020828403121561333c57600080fd5b815160ff81168114610eb357600080fd5b634e487b7160e01b600052601160045260246000fd5b6001815b600184111561339e578085048111156133825761338261334d565b600184161561339057908102905b60019390931c928002613367565b935093915050565b6000826133b5575060016108df565b816133c2575060006108df565b81600181146133d857600281146133e2576133fe565b60019150506108df565b60ff8411156133f3576133f361334d565b50506001821b6108df565b5060208310610133831016604e8410600b8410161715613421575081810a6108df565b61342e6000198484613363565b80600019048211156134425761344261334d565b029392505050565b6000610eb360ff8416836133a6565b80820281158282048414176108df576108df61334d565b60006020828403121561348257600080fd5b8151610eb3816130ff565b81835281816020850137506000828201602090810191909152601f909101601f19169091010190565b6040815260006134ca60408301868861348d565b82810360208401528381526001600160fb1b038411156134e957600080fd5b8360051b80866020840137016020019695505050505050565b634e487b7160e01b600052603260045260246000fd5b6000808335601e1984360301811261352f57600080fd5b8301803591506001600160401b0382111561354957600080fd5b602001915036819003821315612c5b57600080fd5b60208152600061357260208301848661348d565b949350505050565b60006001820161358c5761358c61334d565b5060010190565b6000602082840312156135a557600080fd5b5051919050565b6020808252600d908201526c496e76616c696420526f6f742160981b604082015260600190565b60208082526017908201527f4e756c6c696669657220616c7265616479207370656e74000000000000000000604082015260600190565b602080825282518282018190526000918401906040840190835b81811015613642578351835260209384019390920191600101613624565b509095945050505050565b808201808211156108df576108df61334d565b600063ffffffff8216806136765761367661334d565b6000190192915050565b60006020828403121561369257600080fd5b81356001600160401b038111156136a857600080fd5b6135728482850161307d565b818103818111156108df576108df61334d565b634e487b7160e01b600052601260045260246000fd5b6000826136ec576136ec6136c7565b500690565b600082613700576137006136c7565b500490565b63ffffffff81811683821601908111156108df576108df61334d565b600063ffffffff831680613737576137376136c7565b8063ffffffff84160691505092915050565b6000815180845260005b8181101561376f57602081850181015186830182015201613753565b506000602082860101526020601f19601f83011685010191505092915050565b6040815263ffffffff8351166040820152602083015160608201526000604084015160a060808401526137c560e0840182613749565b90506060850151603f198483030160a08501526137e28282613749565b60809690960151151560c08501525050506001600160a01b039190911660209091015290565b60006040828403121561381a57600080fd5b604080519081016001600160401b038111828210171561383c5761383c613037565b604052825181526020928301519281019290925250919050565b60006080828403121561386857600080fd5b604051606081016001600160401b038111828210171561388a5761388a613037565b80604052508091508251815260208301516138a481612d18565b60208201526138b68460408501613808565b60408201525092915050565b6000608082840312156138d457600080fd5b610eb38383613856565b6000604082840312156138f057600080fd5b610eb38383613808565b60006020828403121561390c57600080fd5b8151610eb381612c62565b63ffffffff81511682526020810151602083015260408101516040830152606081015160608301526000608082015160e0608085015261395a60e0850182613749565b905060a083015184820360a08601526139738282613749565b91505060c083015184820360c08601526127158282613749565b6040815260006139a06040830185613917565b905082151560208301529392505050565b6080815260006139c46080830186613917565b8451602084810191909152909401516040830152506001600160a01b0391909116606090910152919050565b60008060c08385031215613a0357600080fd5b613a0d8484613856565b9150613a1c8460808501613808565b9050925092905056fea2646970667358221220c62b9a4ea0930f4e831270dc953dc2846a48cad862ce4efd41014f2dbb4f452464736f6c634300081b00336080604052348015600f57600080fd5b506125b38061001f6000396000f3fe608060405234801561001057600080fd5b50600436106100575760003560e01c8063055d8d541461005c57806340ec6e4914610081578063664db65a146100945780636bdcae5c146100a7578063e16f6200146100ba575b600080fd5b61006f61006a366004612358565b6100cd565b60405190815260200160405180910390f35b61006f61008f36600461242f565b6100e2565b61006f6100a2366004612464565b6100f1565b61006f6100b53660046124c4565b610106565b61006f6100c83660046124dd565b610111565b60006100d9838361011e565b90505b92915050565b60006100dc8283516000610198565b60006100fe848484610198565b949350505050565b60006100dc826101ad565b60006100fe84848461020e565b60408051600280825260608201835260009283929190602083019080368337019050509050838160008151811061015757610157612509565b602002602001018181525050828160018151811061017757610177612509565b6020026020010181815250506100fe61018e6102b2565b82600260006118a2565b60006100fe6101a56102b2565b8585856118a2565b6040805160018082528183019092526000918291906020808301908036833701905050905082816000815181106101e6576101e6612509565b6020026020010181815250506102076101fd6102b2565b82600160006118a2565b9392505050565b6040805160038082526080820190925260009182919060208201606080368337019050509050848160008151811061024857610248612509565b602002602001018181525050838160018151811061026857610268612509565b602002602001018181525050828160028151811061028857610288612509565b6020026020010181815250506102a961029f6102b2565b82600360006118a2565b95945050505050565b6102ba612287565b604051806040016040528060405180608001604052807f10dc6e9c006ea38b04b1e03b4bd9490c0d03f98929ca1d7fb56821fd19d3b6e781526020017f0c28145b6a44df3e0149b3d0a30b3bb599df9756d4dd9b84a86b38cfb45a740b81526020017e544b8338791518b2c7645a50392798b21f75bb60e3596170067d00141cac1581526020017f222c01175718386f2e2e82eb122789e352e105a3b8fa852613bc534433ee428b815250815260200160405180610800016040528060405180608001604052807f19b849f69450b06848da1d39bd5e4a4302bb86744edc26238b0878e269ed23e581526020017f265ddfe127dd51bd7239347b758f0a1320eb2cc7450acc1dad47f80c8dcf34d681526020017f199750ec472f1809e0f66a545e1e51624108ac845015c2aa3dfc36bab497d8aa81526020017f157ff3fe65ac7208110f06a5f74302b14d743ea25067f0ffd032f787c7f1cdf8815250815260200160405180608001604052807f2e49c43c4569dd9c5fd35ac45fca33f10b15c590692f8beefe18f4896ac9490281526020017f0e35fb89981890520d4aef2b6d6506c3cb2f0b6973c24fa82731345ffa2d1f1e81526020017f251ad47cb15c4f1105f109ae5e944f1ba9d9e7806d667ffec6fe723002e0b99681526020017f13da07dc64d428369873e97160234641f8beb56fdd05e5f3563fa39d9c22df4e815250815260200160405180608001604052807f0c009b84e650e6d23dc00c7dccef7483a553939689d350cd46e7b89055fd473881526020017f011f16b1c63a854f01992e3956f42d8b04eb650c6d535eb0203dec74befdca0681526020017f0ed69e5e383a688f209d9a561daa79612f3f78d0467ad45485df07093f36754981526020017f04dba94a7b0ce9e221acad41472b6bbe3aec507f5eb3d33f463672264c9f789b815250815260200160405180608001604052807f0a3f2637d840f3a16eb094271c9d237b6036757d4bb50bf7ce732ff1d4fa28e881526020017f259a666f129eea198f8a1c502fdb38fa39b1f075569564b6e54a485d1182323f81526020017f28bf7459c9b2f4c6d8e7d06a4ee3a47f7745d4271038e5157a32fdf7ede0d6a181526020017f0a1ca941f057037526ea200f489be8d4c37c85bbcce6a2aeec91bd6941432447815250815260200160405180608001604052807f0c6f8f958be0e93053d7fd4fc54512855535ed1539f051dcb43a26fd926361cf815260200160008152602001600081526020016000815250815260200160405180608001604052807f123106a93cd17578d426e8128ac9d90aa9e8a00708e296e084dd57e69caaf811815260200160008152602001600081526020016000815250815260200160405180608001604052807f26e1ba52ad9285d97dd3ab52f8e840085e8fa83ff1e8f1877b074867cd2dee75815260200160008152602001600081526020016000815250815260200160405180608001604052807f1cb55cad7bd133de18a64c5c47b9c97cbe4d8b7bf9e095864471537e6a4ae2c5815260200160008152602001600081526020016000815250815260200160405180608001604052807f1dcd73e46acd8f8e0e2c7ce04bde7f6d2a53043d5060a41c7143f08e6e9055d0815260200160008152602001600081526020016000815250815260200160405180608001604052807f011003e32f6d9c66f5852f05474a4def0cda294a0eb4e9b9b12b9bb4512e5574815260200160008152602001600081526020016000815250815260200160405180608001604052807f2b1e809ac1d10ab29ad5f20d03a57dfebadfe5903f58bafed7c508dd2287ae8c815260200160008152602001600081526020016000815250815260200160405180608001604052807f2539de1785b735999fb4dac35ee17ed0ef995d05ab2fc5faeaa69ae87bcec0a5815260200160008152602001600081526020016000815250815260200160405180608001604052807f0c246c5a2ef8ee0126497f222b3e0a0ef4e1c3d41c86d46e43982cb11d77951d815260200160008152602001600081526020016000815250815260200160405180608001604052807f192089c4974f68e95408148f7c0632edbb09e6a6ad1a1c2f3f0305f5d03b527b815260200160008152602001600081526020016000815250815260200160405180608001604052807f1eae0ad8ab68b2f06a0ee36eeb0d0c058529097d91096b756d8fdc2fb5a60d85815260200160008152602001600081526020016000815250815260200160405180608001604052807f179190e5d0e22179e46f8282872abc88db6e2fdc0dee99e69768bd98c5d06bfb815260200160008152602001600081526020016000815250815260200160405180608001604052807f29bb9e2c9076732576e9a81c7ac4b83214528f7db00f31bf6cafe794a9b3cd1c815260200160008152602001600081526020016000815250815260200160405180608001604052807f225d394e42207599403efd0c2464a90d52652645882aac35b10e590e6e691e08815260200160008152602001600081526020016000815250815260200160405180608001604052807f064760623c25c8cf753d238055b444532be13557451c087de09efd454b23fd59815260200160008152602001600081526020016000815250815260200160405180608001604052807f10ba3a0e01df92e87f301c4b716d8a394d67f4bf42a75c10922910a78f6b5b87815260200160008152602001600081526020016000815250815260200160405180608001604052807f0e070bf53f8451b24f9c6e96b0c2a801cb511bc0c242eb9d361b77693f21471c815260200160008152602001600081526020016000815250815260200160405180608001604052807f1b94cd61b051b04dd39755ff93821a73ccd6cb11d2491d8aa7f921014de252fb815260200160008152602001600081526020016000815250815260200160405180608001604052807f1d7cb39bafb8c744e148787a2e70230f9d4e917d5713bb050487b5aa7d74070b815260200160008152602001600081526020016000815250815260200160405180608001604052807f2ec93189bd1ab4f69117d0fe980c80ff8785c2961829f701bb74ac1f303b17db815260200160008152602001600081526020016000815250815260200160405180608001604052807f2db366bfdd36d277a692bb825b86275beac404a19ae07a9082ea46bd83517926815260200160008152602001600081526020016000815250815260200160405180608001604052807f062100eb485db06269655cf186a68532985275428450359adc99cec6960711b8815260200160008152602001600081526020016000815250815260200160405180608001604052807f0761d33c66614aaa570e7f1e8244ca1120243f92fa59e4f900c567bf41f5a59b815260200160008152602001600081526020016000815250815260200160405180608001604052807f20fc411a114d13992c2705aa034e3f315d78608a0f7de4ccf7a72e494855ad0d815260200160008152602001600081526020016000815250815260200160405180608001604052807f25b5c004a4bdfcb5add9ec4e9ab219ba102c67e8b3effb5fc3a30f317250bc5a815260200160008152602001600081526020016000815250815260200160405180608001604052807f23b1822d278ed632a494e58f6df6f5ed038b186d8474155ad87e7dff62b37f4b815260200160008152602001600081526020016000815250815260200160405180608001604052807f22734b4c5c3f9493606c4ba9012499bf0f14d13bfcfcccaa16102a29cc2f69e0815260200160008152602001600081526020016000815250815260200160405180608001604052807f26c0c8fe09eb30b7e27a74dc33492347e5bdff409aa3610254413d3fad795ce5815260200160008152602001600081526020016000815250815260200160405180608001604052807f070dd0ccb6bd7bbae88eac03fa1fbb26196be3083a809829bbd626df348ccad9815260200160008152602001600081526020016000815250815260200160405180608001604052807f12b6595bdb329b6fb043ba78bb28c3bec2c0a6de46d8c5ad6067c4ebfd4250da815260200160008152602001600081526020016000815250815260200160405180608001604052807f248d97d7f76283d63bec30e7a5876c11c06fca9b275c671c5e33d95bb7e8d729815260200160008152602001600081526020016000815250815260200160405180608001604052807f1a306d439d463b0816fc6fd64cc939318b45eb759ddde4aa106d15d9bd9baaaa815260200160008152602001600081526020016000815250815260200160405180608001604052807f28a8f8372e3c38daced7c00421cb4621f4f1b54ddc27821b0d62d3d6ec7c56cf815260200160008152602001600081526020016000815250815260200160405180608001604052807e94975717f9a8a8bb35152f24d43294071ce320c829f388bc852183e1e2ce7e815260200160008152602001600081526020016000815250815260200160405180608001604052807f04d5ee4c3aa78f7d80fde60d716480d3593f74d4f653ae83f4103246db2e8d65815260200160008152602001600081526020016000815250815260200160405180608001604052807f2a6cf5e9aa03d4336349ad6fb8ed2269c7bef54b8822cc76d08495c12efde187815260200160008152602001600081526020016000815250815260200160405180608001604052807f2304d31eaab960ba9274da43e19ddeb7f792180808fd6e43baae48d7efcba3f3815260200160008152602001600081526020016000815250815260200160405180608001604052807f03fd9ac865a4b2a6d5e7009785817249bff08a7e0726fcb4e1c11d39d199f0b0815260200160008152602001600081526020016000815250815260200160405180608001604052807eb7258ded52bbda2248404d55ee5044798afc3a209193073f7954d4d63b0b64815260200160008152602001600081526020016000815250815260200160405180608001604052807f159f81ada0771799ec38fca2d4bf65ebb13d3a74f3298db36272c5ca65e92d9a815260200160008152602001600081526020016000815250815260200160405180608001604052807f1ef90e67437fbc8550237a75bc28e3bb9000130ea25f0c5471e144cf4264431f815260200160008152602001600081526020016000815250815260200160405180608001604052807f1e65f838515e5ff0196b49aa41a2d2568df739bc176b08ec95a79ed82932e30d815260200160008152602001600081526020016000815250815260200160405180608001604052807f2b1b045def3a166cec6ce768d079ba74b18c844e570e1f826575c1068c94c33f815260200160008152602001600081526020016000815250815260200160405180608001604052807f0832e5753ceb0ff6402543b1109229c165dc2d73bef715e3f1c6e07c168bb173815260200160008152602001600081526020016000815250815260200160405180608001604052807f02f614e9cedfb3dc6b762ae0a37d41bab1b841c2e8b6451bc5a8e3c390b6ad16815260200160008152602001600081526020016000815250815260200160405180608001604052807f0e2427d38bd46a60dd640b8e362cad967370ebb777bedff40f6a0be27e7ed705815260200160008152602001600081526020016000815250815260200160405180608001604052807f0493630b7c670b6deb7c84d414e7ce79049f0ec098c3c7c50768bbe29214a53a815260200160008152602001600081526020016000815250815260200160405180608001604052807f22ead100e8e482674decdab17066c5a26bb1515355d5461a3dc06cc85327cea9815260200160008152602001600081526020016000815250815260200160405180608001604052807f25b3e56e655b42cdaae2626ed2554d48583f1ae35626d04de5084e0b6d2a6f16815260200160008152602001600081526020016000815250815260200160405180608001604052807f1e32752ada8836ef5837a6cde8ff13dbb599c336349e4c584b4fdc0a0cf6f9d0815260200160008152602001600081526020016000815250815260200160405180608001604052807f2fa2a871c15a387cc50f68f6f3c3455b23c00995f05078f672a9864074d412e5815260200160008152602001600081526020016000815250815260200160405180608001604052807f2f569b8a9a4424c9278e1db7311e889f54ccbf10661bab7fcd18e7c7a7d83505815260200160008152602001600081526020016000815250815260200160405180608001604052807f044cb455110a8fdd531ade530234c518a7df93f7332ffd2144165374b246b43d815260200160008152602001600081526020016000815250815260200160405180608001604052807f227808de93906d5d420246157f2e42b191fe8c90adfe118178ddc723a5319025815260200160008152602001600081526020016000815250815260200160405180608001604052807f02fcca2934e046bc623adead873579865d03781ae090ad4a8579d2e7a6800355815260200160008152602001600081526020016000815250815260200160405180608001604052807f0ef915f0ac120b876abccceb344a1d36bad3f3c5ab91a8ddcbec2e060d8befac815260200160008152602001600081526020016000815250815260200160405180608001604052807f1797130f4b7a3e1777eb757bc6f287f6ab0fb85f6be63b09f3b16ef2b1405d3881526020017f0a76225dc04170ae3306c85abab59e608c7f497c20156d4d36c668555decc6e581526020017f1fffb9ec1992d66ba1e77a7b93209af6f8fa76d48acb664796174b5326a31a5c81526020017f25721c4fc15a3f2853b57c338fa538d85f8fbba6c6b9c6090611889b797b9c5f815250815260200160405180608001604052807f0c817fd42d5f7a41215e3d07ba197216adb4c3790705da95eb63b982bfcaf75a81526020017f13abe3f5239915d39f7e13c2c24970b6df8cf86ce00a22002bc15866e52b5a9681526020017f2106feea546224ea12ef7f39987a46c85c1bc3dc29bdbd7a92cd60acb4d391ce81526020017f21ca859468a746b6aaa79474a37dab49f1ca5a28c748bc7157e1b3345bb0f959815250815260200160405180608001604052807f05ccd6255c1e6f0c5cf1f0df934194c62911d14d0321662a8f1a48999e34185b81526020017f0f0e34a64b70a626e464d846674c4c8816c4fb267fe44fe6ea28678cb09490a481526020017f0558531a4e25470c6157794ca36d0e9647dbfcfe350d64838f5b1a8a2de0d4bf81526020017f09d3dca9173ed2faceea125157683d18924cadad3f655a60b72f5864961f1455815250815260200160405180608001604052807f0328cbd54e8c0913493f866ed03d218bf23f92d68aaec48617d4c722e5bd433581526020017f2bf07216e2aff0a223a487b1a7094e07e79e7bcc9798c648ee3347dd5329d34b81526020017f1daf345a58006b736499c583cb76c316d6f78ed6a6dffc82111e11a63fe412df81526020017f176563472456aaa746b694c60e1823611ef39039b2edc7ff391e6f2293d2c404815250815250815250905090565b6000806118b96118b3865160401b90565b87611928565b905060005b855181101561190357848110156118fb576118fb8682815181106118e4576118e4612509565b6020026020010151836119ca90919063ffffffff16565b6001016118be565b508215611915576119158160016119ca565b61191e81611a58565b9695505050505050565b6119306122ac565b60006040518060c001604052808581526020016040518060600160405280600081526020016000815260200160008152508152602001604051806080016040528060008152602001600081526020016000815260200160008152508152602001600081526020016000151581526020018481525090508381604001516003600481106119be576119be612509565b60200201529392505050565b81608001511580156119e0575060038260600151145b156119ff576119ee82611b70565b506020820151526001606090910152565b8160800151158015611a1657506003826060015114155b15611a5457808260200151836060015160038110611a3657611a36612509565b602002015260608201805160019190611a50908390612535565b9052505b5050565b60008160800151611ac7576000611a6e83611b70565b60016080850152905060005b6003811015611abd57818160038110611a9557611a95612509565b602002015184602001518260038110611ab057611ab0612509565b6020020152600101611a7a565b5050600360608301525b60208201515160015b6003811015611b30578360600151811015611b285783602001518160038110611afb57611afb612509565b60200201518460200151600183611b129190612548565b60038110611b2257611b22612509565b60200201525b600101611ad0565b50600183606001818151611b449190612548565b905250602083015160608401516000919060038110611b6557611b65612509565b602002015292915050565b611b786122ee565b60005b6003811015611bb55782606001518110611bad57600083602001518260038110611ba757611ba7612509565b60200201525b600101611b7b565b5060005b6003811015611c2457611c0183602001518260038110611bdb57611bdb612509565b602002015184604001518360048110611bf657611bf6612509565b602002015190611cb3565b83604001518260048110611c1757611c17612509565b6020020152600101611bb9565b50611c4482604001518360a00151600001518460a0015160200151611ce0565b6040808401919091528051606081018252600080825260208201819052918101829052905b6003811015611cac5783604001518160048110611c8857611c88612509565b6020020151828260038110611c9f57611c9f612509565b6020020152600101611c69565b5092915050565b60007f30644e72e131a029b85045b68181585d2833e84879b9709143e1f593f00000018284089392505050565b611ce861230c565b600060405180608001604052806000815260200160008152602001600081526020016000815250905060005b6004811015611d5357858160048110611d2f57611d2f612509565b6020020151828260048110611d4657611d46612509565b6020020152600101611d14565b50611d85816040518060400160405280600d81526020016c496e697469616c20737461746560981b8152506000611f99565b611d8e81611fc8565b611dcf816040518060400160405280601b81526020017f4166746572206d6174726978206d756c7469706c69636174696f6e00000000008152506000611f99565b6000611ddd6002600861255b565b905060005b81811015611e0f57611df58386836120c2565b611dfe8361212f565b611e0783611fc8565b600101611de2565b50611e3f826040518060400160405280600b81526020016a18599d195c88199a5c9cdd60aa1b8152506000611f99565b6000611e4c603883612535565b9050815b81811015611edb57611e7b868260408110611e6d57611e6d612509565b602002015151856000611bf6565b8452611e8e8460005b602002015161216f565b8452611e9a8488612192565b611ed38460405180604001604052806016815260200175666f72206c6f6f7020616674657220696e7465726e6d60501b81525083611f99565b600101611e50565b50611f0c836040518060400160405280600c81526020016b18599d195c881cd958dbdb9960a21b8152506000611f99565b6000611f1a60386008612535565b9050815b81811015611f4b57611f318588836120c2565b611f3a8561212f565b611f4385611fc8565b600101611f1e565b50611f8d846040518060400160405280601c81526020017f66696e616c20746869726420616674657220616c6c20726f756e6473000000008152506000611f99565b50919695505050505050565b60005b6004811015611fc257611fba848260048110611a5457611a54612509565b600101611f9c565b50505050565b6000611fdd8260016020020151836000611bf6565b90506000611ff48360036020020151846002611bf6565b9050600061200b8460016020020151856001611bf6565b90506120178183611cb3565b9050600061202e8560036020020151866003611bf6565b905061203a8185611cb3565b905060006120488480611cb3565b90506120548180611cb3565b90506120608183611cb3565b9050600061206e8680611cb3565b905061207a8180611cb3565b90506120868185611cb3565b905060006120948483611cb3565b905060006120a28685611cb3565b918952506020880191909152604087015260609095019490945250505050565b60005b6004811015611fc2576121108383604081106120e3576120e3612509565b602002015182600481106120f9576120f9612509565b6020020151858360048110611bf657611bf6612509565b84826004811061212257612122612509565b60200201526001016120c5565b60005b6004811015611a5457612150828260048110611e8457611e84612509565b82826004811061216257612162612509565b6020020152600101612132565b60008061217c838061225a565b90506102078361218c838061225a565b9061225a565b6000805b60048110156121ca576121c08482600481106121b4576121b4612509565b60200201518390611cb3565b9150600101612196565b5060005b6004811015611fc25761220e8382600481106121ec576121ec612509565b602002015185836004811061220357612203612509565b60200201519061225a565b84826004811061222057612220612509565b602002015261223b82858360048110611bf657611bf6612509565b84826004811061224d5761224d612509565b60200201526001016121ce565b60007f30644e72e131a029b85045b68181585d2833e84879b9709143e1f593f00000018284099392505050565b604051806040016040528061229a61230c565b81526020016122a761232a565b905290565b6040518060c00160405280600081526020016122c66122ee565b81526020016122d361230c565b815260006020820181905260408201526060016122a7612287565b60405180606001604052806003906020820280368337509192915050565b60405180608001604052806004906020820280368337509192915050565b6040518061080001604052806040905b61234261230c565b81526020019060019003908161233a5790505090565b6000806040838503121561236b57600080fd5b50508035926020909101359150565b634e487b7160e01b600052604160045260246000fd5b600082601f8301126123a157600080fd5b813567ffffffffffffffff8111156123bb576123bb61237a565b8060051b604051601f19603f830116810181811067ffffffffffffffff821117156123e8576123e861237a565b60405291825260208185018101929081018684111561240657600080fd5b6020860192505b8383101561242557823581526020928301920161240d565b5095945050505050565b60006020828403121561244157600080fd5b813567ffffffffffffffff81111561245857600080fd5b6100fe84828501612390565b60008060006060848603121561247957600080fd5b833567ffffffffffffffff81111561249057600080fd5b61249c86828701612390565b93505060208401359150604084013580151581146124b957600080fd5b809150509250925092565b6000602082840312156124d657600080fd5b5035919050565b6000806000606084860312156124f257600080fd5b505081359360208301359350604090920135919050565b634e487b7160e01b600052603260045260246000fd5b634e487b7160e01b600052601160045260246000fd5b808201808211156100dc576100dc61251f565b818103818111156100dc576100dc61251f565b60008261257857634e487b7160e01b600052601260045260246000fd5b50049056fea2646970667358221220c31b67890858b12d5223c44625869c556bc54cd8915ab35b0468309781fb26d964736f6c634300081b0033",
  "devdoc": {
    "errors": {
      "AccessControlBadConfirmation()": [
        {
          "details": "The caller of a function is not the expected one. NOTE: Don't confuse with {AccessControlUnauthorizedAccount}."
        }
      ],
      "AccessControlUnauthorizedAccount(address,bytes32)": [
        {
          "details": "The `account` is missing a role."
        }
      ],
      "OwnableInvalidOwner(address)": [
        {
          "details": "The owner is not a valid owner account. (eg. `address(0)`)"
        }
      ],
      "OwnableUnauthorizedAccount(address)": [
        {
          "details": "The caller account is not authorized to perform an operation."
        }
      ],
      "SafeERC20FailedOperation(address)": [
        {
          "details": "An operation with an ERC-20 token failed."
        }
      ]
    },
    "events": {
      "RoleAdminChanged(bytes32,bytes32,bytes32)": {
        "details": "Emitted when `newAdminRole` is set as ``role``'s admin role, replacing `previousAdminRole` `DEFAULT_ADMIN_ROLE` is the starting admin for all roles, despite {RoleAdminChanged} not being emitted to signal this."
      },
      "RoleGranted(bytes32,address,address)": {
        "details": "Emitted when `account` is granted `role`. `sender` is the account that originated the contract call. This account bears the admin role (for the granted role). Expected in cases where the role was granted using the internal {AccessControl-_grantRole}."
      },
      "RoleRevoked(bytes32,address,address)": {
        "details": "Emitted when `account` is revoked `role`. `sender` is the account that originated the contract call:   - if using `revokeRole`, it is the admin role bearer   - if using `renounceRole`, it is the role bearer (i.e. `account`)"
      }
    },
    "kind": "dev",
    "methods": {
      "allowInitializePath((uint32,bytes32,uint64))": {
        "details": "This indicates to the endpoint that the OApp has enabled msgs for this particular path to be received.This defaults to assuming if a peer has been set, its initialized. Can be overridden by the OApp if there is other logic to determine this.",
        "params": {
          "origin": "The origin information containing the source endpoint and sender address."
        },
        "returns": {
          "_0": "Whether the path has been initialized."
        }
      },
      "getRoleAdmin(bytes32)": {
        "details": "Returns the admin role that controls `role`. See {grantRole} and {revokeRole}. To change a role's admin, use {_setRoleAdmin}."
      },
      "grantRole(bytes32,address)": {
        "details": "Grants `role` to `account`. If `account` had not been already granted `role`, emits a {RoleGranted} event. Requirements: - the caller must have ``role``'s admin role. May emit a {RoleGranted} event."
      },
      "hasRole(bytes32,address)": {
        "details": "Returns `true` if `account` has been granted `role`."
      },
      "isComposeMsgSender((uint32,bytes32,uint64),bytes,address)": {
        "details": "_origin The origin information containing the source endpoint and sender address.  - srcEid: The source chain endpoint ID.  - sender: The sender address on the src chain.  - nonce: The nonce of the message._message The lzReceive payload.Applications can optionally choose to implement separate composeMsg senders that are NOT the bridging layer.The default sender IS the OAppReceiver implementer.",
        "params": {
          "_sender": "The sender address."
        },
        "returns": {
          "_0": "isSender Is a valid sender."
        }
      },
      "lzReceive((uint32,bytes32,uint64),bytes32,bytes,address,bytes)": {
        "details": "Entry point for receiving messages or packets from the endpoint.Entry point for receiving msg/packet from the LayerZero endpoint.",
        "params": {
          "_executor": "The address of the executor for the received message.",
          "_extraData": "Additional arbitrary data provided by the corresponding executor.",
          "_guid": "The unique identifier for the received LayerZero message.",
          "_message": "The payload of the received message.",
          "_origin": "The origin information containing the source endpoint and sender address.  - srcEid: The source chain endpoint ID.  - sender: The sender address on the src chain.  - nonce: The nonce of the message."
        }
      },
      "nextNonce(uint32,bytes32)": {
        "details": "_srcEid The source endpoint ID._sender The sender address.The path nonce starts from 1. If 0 is returned it means that there is NO nonce ordered enforcement.Is required by the off-chain executor to determine the OApp expects msg execution is ordered.This is also enforced by the OApp.By default this is NOT enabled. ie. nextNonce is hardcoded to return 0.",
        "returns": {
          "nonce": "The next nonce."
        }
      },
      "oAppVersion()": {
        "returns": {
          "receiverVersion": "The version of the OAppReceiver.sol implementation.",
          "senderVersion": "The version of the OAppSender.sol implementation."
        }
      },
      "owner()": {
        "details": "Returns the address of the current owner."
      },
      "renounceOwnership()": {
        "details": "Leaves the contract without owner. It will not be possible to call `onlyOwner` functions. Can only be called by the current owner. NOTE: Renouncing ownership will leave the contract without an owner, thereby disabling any functionality that is only available to the owner."
      },
      "renounceRole(bytes32,address)": {
        "details": "Revokes `role` from the calling account. Roles are often managed via {grantRole} and {revokeRole}: this function's purpose is to provide a mechanism for accounts to lose their privileges if they are compromised (such as when a trusted device is misplaced). If the calling account had been revoked `role`, emits a {RoleRevoked} event. Requirements: - the caller must be `callerConfirmation`. May emit a {RoleRevoked} event."
      },
      "revokeRole(bytes32,address)": {
        "details": "Revokes `role` from `account`. If `account` had been granted `role`, emits a {RoleRevoked} event. Requirements: - the caller must have ``role``'s admin role. May emit a {RoleRevoked} event."
      },
      "setDelegate(address)": {
        "details": "Only the owner/admin of the OApp can call this function.Provides the ability for a delegate to set configs, on behalf of the OApp, directly on the Endpoint contract.",
        "params": {
          "_delegate": "The address of the delegate to be set."
        }
      },
      "setPeer(uint32,bytes32)": {
        "details": "Only the owner/admin of the OApp can call this function.Indicates that the peer is trusted to send LayerZero messages to this OApp.Set this to bytes32(0) to remove the peer address.Peer is a bytes32 to accommodate non-evm chains.",
        "params": {
          "_eid": "The endpoint ID.",
          "_peer": "The address of the peer to be associated with the corresponding endpoint."
        }
      },
      "supportsInterface(bytes4)": {
        "details": "See {IERC165-supportsInterface}."
      },
      "transferOwnership(address)": {
        "details": "Transfers ownership of the contract to a new account (`newOwner`). Can only be called by the current owner."
      }
    },
    "version": 1
  },
  "userdoc": {
    "kind": "user",
    "methods": {
      "allowInitializePath((uint32,bytes32,uint64))": {
        "notice": "Checks if the path initialization is allowed based on the provided origin."
      },
      "endpoint()": {
        "notice": "Retrieves the LayerZero endpoint associated with the OApp."
      },
      "isComposeMsgSender((uint32,bytes32,uint64),bytes,address)": {
        "notice": "Indicates whether an address is an approved composeMsg sender to the Endpoint."
      },
      "nextNonce(uint32,bytes32)": {
        "notice": "Retrieves the next nonce for a given source endpoint and sender address."
      },
      "oAppVersion()": {
        "notice": "Retrieves the OApp version information."
      },
      "peers(uint32)": {
        "notice": "Retrieves the peer (OApp) associated with a corresponding endpoint."
      },
      "setDelegate(address)": {
        "notice": "Sets the delegate address for the OApp."
      },
      "setPeer(uint32,bytes32)": {
        "notice": "Sets the peer address (OApp instance) for a corresponding endpoint."
      }
    },
    "version": 1
  },
  "storageLayout": {
    "storage": [
      {
        "astId": 11736,
        "contract": "contracts/PrivateStargateFinance.sol:PrivateStargateFinance",
        "label": "filledSubtrees",
        "offset": 0,
        "slot": "0",
        "type": "t_mapping(t_uint256,t_uint256)"
      },
      {
        "astId": 11740,
        "contract": "contracts/PrivateStargateFinance.sol:PrivateStargateFinance",
        "label": "roots",
        "offset": 0,
        "slot": "1",
        "type": "t_mapping(t_uint256,t_uint256)"
      },
      {
        "astId": 11748,
        "contract": "contracts/PrivateStargateFinance.sol:PrivateStargateFinance",
        "label": "currentRootIndex",
        "offset": 0,
        "slot": "2",
        "type": "t_uint32"
      },
      {
        "astId": 11751,
        "contract": "contracts/PrivateStargateFinance.sol:PrivateStargateFinance",
        "label": "nextIndex",
        "offset": 0,
        "slot": "3",
        "type": "t_uint256"
      },
      {
        "astId": 11753,
        "contract": "contracts/PrivateStargateFinance.sol:PrivateStargateFinance",
        "label": "MAX_LEAF_INDEX",
        "offset": 0,
        "slot": "4",
        "type": "t_uint256"
      },
      {
        "astId": 11756,
        "contract": "contracts/PrivateStargateFinance.sol:PrivateStargateFinance",
        "label": "poseidon2Hasher",
        "offset": 0,
        "slot": "5",
        "type": "t_contract(Poseidon2)16474"
      },
      {
        "astId": 8302,
        "contract": "contracts/PrivateStargateFinance.sol:PrivateStargateFinance",
        "label": "_owner",
        "offset": 0,
        "slot": "6",
        "type": "t_address"
      },
      {
        "astId": 5208,
        "contract": "contracts/PrivateStargateFinance.sol:PrivateStargateFinance",
        "label": "peers",
        "offset": 0,
        "slot": "7",
        "type": "t_mapping(t_uint32,t_bytes32)"
      },
      {
        "astId": 7941,
        "contract": "contracts/PrivateStargateFinance.sol:PrivateStargateFinance",
        "label": "_roles",
        "offset": 0,
        "slot": "8",
        "type": "t_mapping(t_bytes32,t_struct(RoleData)7936_storage)"
      },
      {
        "astId": 12218,
        "contract": "contracts/PrivateStargateFinance.sol:PrivateStargateFinance",
        "label": "depositVerifier",
        "offset": 0,
        "slot": "9",
        "type": "t_contract(DepositVerifier)27755"
      },
      {
        "astId": 12221,
        "contract": "contracts/PrivateStargateFinance.sol:PrivateStargateFinance",
        "label": "transferVerifier",
        "offset": 0,
        "slot": "10",
        "type": "t_contract(TransferVerifier)36194"
      },
      {
        "astId": 12224,
        "contract": "contracts/PrivateStargateFinance.sol:PrivateStargateFinance",
        "label": "withdrawVerifier",
        "offset": 0,
        "slot": "11",
        "type": "t_contract(WithdrawVerifier)53072"
      },
      {
        "astId": 12227,
        "contract": "contracts/PrivateStargateFinance.sol:PrivateStargateFinance",
        "label": "warpVerifier",
        "offset": 0,
        "slot": "12",
        "type": "t_contract(WarpVerifier)44633"
      },
      {
        "astId": 12232,
        "contract": "contracts/PrivateStargateFinance.sol:PrivateStargateFinance",
        "label": "DEPOSIT_ROLE",
        "offset": 0,
        "slot": "13",
        "type": "t_bytes32"
      },
      {
        "astId": 12236,
        "contract": "contracts/PrivateStargateFinance.sol:PrivateStargateFinance",
        "label": "nullifierUsed",
        "offset": 0,
        "slot": "14",
        "type": "t_mapping(t_bytes32,t_bool)"
      },
      {
        "astId": 12240,
        "contract": "contracts/PrivateStargateFinance.sol:PrivateStargateFinance",
        "label": "availableOFTs",
        "offset": 0,
        "slot": "15",
        "type": "t_mapping(t_address,t_bool)"
      }
    ],
    "types": {
      "t_address": {
        "encoding": "inplace",
        "label": "address",
        "numberOfBytes": "20"
      },
      "t_bool": {
        "encoding": "inplace",
        "label": "bool",
        "numberOfBytes": "1"
      },
      "t_bytes32": {
        "encoding": "inplace",
        "label": "bytes32",
        "numberOfBytes": "32"
      },
      "t_contract(DepositVerifier)27755": {
        "encoding": "inplace",
        "label": "contract DepositVerifier",
        "numberOfBytes": "20"
      },
      "t_contract(Poseidon2)16474": {
        "encoding": "inplace",
        "label": "contract Poseidon2",
        "numberOfBytes": "20"
      },
      "t_contract(TransferVerifier)36194": {
        "encoding": "inplace",
        "label": "contract TransferVerifier",
        "numberOfBytes": "20"
      },
      "t_contract(WarpVerifier)44633": {
        "encoding": "inplace",
        "label": "contract WarpVerifier",
        "numberOfBytes": "20"
      },
      "t_contract(WithdrawVerifier)53072": {
        "encoding": "inplace",
        "label": "contract WithdrawVerifier",
        "numberOfBytes": "20"
      },
      "t_mapping(t_address,t_bool)": {
        "encoding": "mapping",
        "key": "t_address",
        "label": "mapping(address => bool)",
        "numberOfBytes": "32",
        "value": "t_bool"
      },
      "t_mapping(t_bytes32,t_bool)": {
        "encoding": "mapping",
        "key": "t_bytes32",
        "label": "mapping(bytes32 => bool)",
        "numberOfBytes": "32",
        "value": "t_bool"
      },
      "t_mapping(t_bytes32,t_struct(RoleData)7936_storage)": {
        "encoding": "mapping",
        "key": "t_bytes32",
        "label": "mapping(bytes32 => struct AccessControl.RoleData)",
        "numberOfBytes": "32",
        "value": "t_struct(RoleData)7936_storage"
      },
      "t_mapping(t_uint256,t_uint256)": {
        "encoding": "mapping",
        "key": "t_uint256",
        "label": "mapping(uint256 => uint256)",
        "numberOfBytes": "32",
        "value": "t_uint256"
      },
      "t_mapping(t_uint32,t_bytes32)": {
        "encoding": "mapping",
        "key": "t_uint32",
        "label": "mapping(uint32 => bytes32)",
        "numberOfBytes": "32",
        "value": "t_bytes32"
      },
      "t_struct(RoleData)7936_storage": {
        "encoding": "inplace",
        "label": "struct AccessControl.RoleData",
        "members": [
          {
            "astId": 7933,
            "contract": "contracts/PrivateStargateFinance.sol:PrivateStargateFinance",
            "label": "hasRole",
            "offset": 0,
            "slot": "0",
            "type": "t_mapping(t_address,t_bool)"
          },
          {
            "astId": 7935,
            "contract": "contracts/PrivateStargateFinance.sol:PrivateStargateFinance",
            "label": "adminRole",
            "offset": 0,
            "slot": "1",
            "type": "t_bytes32"
          }
        ],
        "numberOfBytes": "64"
      },
      "t_uint256": {
        "encoding": "inplace",
        "label": "uint256",
        "numberOfBytes": "32"
      },
      "t_uint32": {
        "encoding": "inplace",
        "label": "uint32",
        "numberOfBytes": "4"
      }
    }
  }
}